:0804E60054696D653A002D0018
:100003001204831204EE7BFF7A0479E67D017F01FB
:1000130012040F1201E91202EAE518FB7A00750CCB
:10002300027D097F011204507BFF7A0479EC7D0B7A
:100033007F0112040FE519FB7A00750C027D0C7F1A
:10004300011204507BFF7A0479EC7D0E7F011204C8
:100053000FE51AFB7A00750C027D0F7F0112045025
:10006300E51BFB7A00750C027D017F021204507BB5
:10007300FF7A0479EC7D037F0212040FE51CFB7AFF
:1000830000750C027D047F021204507BFF7A047911
:10009300EC7D067F0212040FE51DFB7A00750C024E
:1000A3007D077F021204507BFF7A0479EC7D097F80
:1000B3000212040FE51EFB7A00750C027D0A7F0213
:0600C300120450020019B6
:0604AA00C2A58F80D2A75D
:0804B0007F027EEFDEFEDFFC9F
:0104B8002221
:0A04C800C2A61204AAC2A70204B0E3
:10043200CFCDCFCECCCE1201087C007D0A120108AE
:04044200ED2430FF76
:0A044600D2A61204AAC2A70204B055
:10046D00AE07BE0104ED148006BE0209ED243F4423
:06047D0080FF1204C822FA
:100483007F381204C87F0C1204C87F061204C87F89
:04049300010204C896
:0A04D200AC0312046DAF04020446EF
:06040F008B088A09890A2E
:1004150012046DE4FDAB08AA09A90A8D8275830053
:0C0425001200C9FF60061204460D80E9B9
:0104310022A8
:0C03DC007F0AEA24FFFDE434FFFC7E00F1
:0803E8008E0D8F0E8C0F8D109D
:1003F0007F017E00E4FBEBC39510E50F6480F87489
:0E0400008098500AAC0DAD0E1200F60B80E88D
:01040E0022CB
:040450008A0A8B0B7E
:1004540012046DAA0CEAD39400400D1203DCAC0A1A
:08046400AD0B1204321A80ED09
:01046C00226D
:1003310012046DC3EA64809480400B7F2B12044643
:100341008A168B17800E7F2D120446C3E49BF51786
:10035100E49AF516AA15EAD39400400D1203DCAC19
:0903610016AD171204321A80EDEA
:01036A002270
:04036B008A218B2236
:10036F0012046DAA23EAD3940040297F101203DEF2
:10037F00AC21AD22CFCDCFCECCCE120108EF540F92
:10038F00FEC3940AEE5004243080022437FF120477
:04039F00461A80D1A9
:0103A3002237
:0403A4008A268B27F3
:1003A80012046DAA28EAD394004028EA24FFFDE449
:1003B80034FFFC7F027E001203E8AC26AD27CFCDC8
:1003C800CFCECCCE120108EF54012430FF120446E0
:0303D8001A80D2B6
:0103DB0022FF
:0904DC0007181A0A01113014047A
:0504EE00C2B5C2B622F8
:02029C00AD07AC
:10029E00E4F9FB430501D2B574017E00A803088082
:1002AE0005C333CE33CED8F9FFEDF582EF55822458
:1002BE00FF92B4C2B6D2B60BBB08DDE4FBD2B6C217
:1002CE00B630B40D7401A803088002C333D8FC42C3
:0B02DE00010BBB08E8C2B5C2B4AF01C1
:0102E90022F2
:02024B00A90701
:10024D00D2B5E4FB74017E00A803088005C333CE4C
:10025D0033CED8F9FFE9F582EF558224FF92B4D25F
:10026D00B6C2B60BBB08DDE4FB74017E00A8030823
:10027D008005C333CE33CED8F9FFEDF582EF55822D
:0E028D0024FF92B4D2B6C2B60BBB08DDC2B5D8
:01029B002240
:1001E900E4FD7F8E12024BAF18120497AD077F8C86
:1001F90012024BAF19120497AD077F8812024BAF59
:100209001A120497AD077F8612024BAF1B1204978F
:10021900AD077F8412024BAF1C120497AD077F8292
:1002290012024BAF1D120497AD077F8012024BAF2C
:100239001E120497AD077F8A12024B7D807F8E02C2
:02024900024B66
:1002EA007F8C12029C1204B98F187F8812029C120A
:1002FA0004B98F197F8612029C1204B98F1A7F845F
:10030A0012029C1204B98F1B7F8212029C1204B93A
:10031A008F1C7F8012029C1204B98F1D7F8A1202E1
:07032A009C1204B98F1E2292
:0F04B900EFC4540F75F00AA4FEEF540F2EFF226C
:10049700EF75F00A84C454F0FEEF75F00A84E5F0B6
:0304A7004EFF22E3
:0300000002015D9D
:0C015D00787FE4F6D8FD7581280201A42B
:1000C900BB010CE58229F582E5833AF583E02250EC
:1000D90006E92582F8E622BBFE06E92582F8E22236
:0D00E900E58229F582E5833AF583E4932250
:1000F600EF8DF0A4A8F0CF8CF0A428CE8DF0A42E1E
:02010600FE22D7
:10010800BC000BBE0029EF8DF084FFADF022E4CCDB
:10011800F875F008EF2FFFEE33FEEC33FCEE9DECA4
:10012800984005FCEE9DFE0FD5F0E9E4CEFD22EDEA
:10013800F8F5F0EE8420D21CFEADF075F008EF2F34
:10014800FFED33FD4007985006D5F0F222C398FD25
:050158000FD5F0EA22C2
:10016900020003E493A3F8E493A34003F68001F2A9
:1001790008DFF48029E493A3F85407240CC8C33397
:10018900C4540F4420C8834004F456800146F6DF66
:10019900E4800B01020408102040809004DCE47E16
:1001A900019360BCA3FF543F30E509541FFEE4935B
:1001B900A360010ECF54C025E060A840B8E493A322
:1001C900FAE493A3F8E493A3C8C582C8CAC583CA4D
:1001D900F0A3C8C582C8CAC583CADFE9DEE780BE05
:0104E5000016
:00000001FF
