:10008F00204508000000000000000000FF1010FFD6
:10009F0000FF919100FF010100FF010100FF81FFAF
:1000AF0000000D0E00FF011F01FF00FF81FF00FF89
:1000BF0098F70100FF010100FF817E0000FD0000A5
:0800CF00000000000000000029
:1000D800E4F54EF54F120173E4F54DE54D254E2438
:1000E80008F8E6FD7C00AF4D12013F054DE54DC314
:1000F800940840E7054FE54FB414DD054EE4F54F8D
:0A010800E54EB43AD3E4F54E80CE84
:08016A007F027E6DDEFEDFFC6A
:01017200226A
:10013F008F508C518D52E4FF120112AF507480A872
:10014F0007088002C313D8FCF4F580AF52120112D6
:0B015F0012016A7580FFE4FF0201122C
:05017300C2B5C2B62276
:02011200AD0737
:10011400E4FB74807E00A803088006CEA2E713CE19
:1001240013D8F8FFEDF582EF558224FF92B4D2B6CE
:0A013400C2B60BBB08DCD2B5C2B5A1
:01013E00229E
:03000000020003F8
:0C000300787FE4F6D8FD75815202004AB7
:10000F000200D8E493A3F8E493A34003F68001F22F
:10001F0008DFF48029E493A3F85407240CC8C333F2
:10002F00C4540F4420C8834004F456800146F6DFC1
:10003F00E4800B010204081020408090008FE47EC2
:10004F00019360BCA3FF543F30E509541FFEE493B6
:10005F00A360010ECF54C025E060A840B8E493A37D
:10006F00FAE493A3F8E493A3C8C582C8CAC583CAA8
:10007F00F0A3C8C582C8CAC583CADFE9DEE780BE60
:0100D7000028
:00000001FF
