:06050900C2A58F80D2A7FD
:08050F007F027EEFDEFEDFFC3F
:0105170022C1
:0A051800C2A6120509C2A702050FD2
:10044E00CFCDCFCECCCE1202227C007D0A1202225C
:04045E00ED2430FF5A
:0A046200D2A6120509C2A702050F79
:1004BE00AE07BE0104ED148006BE0209ED243F44D2
:0604CE0080FF1205182258
:1004D4007F381205187F0C1205187F061205187F45
:0404E40001020518F4
:0A052200AC031204BEAF0402046231
:060409008B088A09890A34
:10040F001204BEE4FDAB08AA09A90A8D8275830008
:0C041F001201E3FF60061204620D80E988
:01042B0022AE
:0C03AE007F0AEA24FFFDE434FFFC7E001F
:0803BA008E0F8F108C118D12C3
:1003C2007F017E00E4FBEBC39512E5116480F874B3
:0E03D2008098500AAC0FAD101202100B80E89C
:0103E00022FA
:04048A008A0C8B0D40
:10048E001204BEAA0EEAD39400400D1203AEAC0CB9
:08049E00AD0D12044E1A80EDB1
:0104A6002233
:100303001204BEC3EA64809480400B7F2B12046204
:100313008A188B19800E7F2D120462C3E49BF51992
:10032300E49AF518AA17EAD39400400D1203AEAC71
:0903330018AD1912044E1A80EDF8
:01033C00229E
:04033D008A1C8B1D6E
:100341001204BEAA1EEAD3940040297F101203B002
:10035100AC1CAD1DCFCDCFCECCCE120222EF540FAF
:10036100FEC3940AEE5004243080022437FF1204A5
:04037100621A80D1BB
:010375002265
:040376008A218B222B
:10037A001204BEAA23EAD394004028EA24FFFDE42B
:10038A0034FFFC7F027E001203BAAC21AD22CFCD2E
:10039A00CFCECCCE120222EF54012430FF120462D7
:0303AA001A80D2E4
:0103AD00222D
:09052C0070617373776F72640053
:0804F9000224000002260B485A
:1003E1001204D47BFF7A05792C7D017F0112040967
:1003F1001200038E248F25AD27AC2612046C7F6476
:080401001204E812042C80E84B
:1000FD00750AFF7590FFC29320970E7F011204E8D9
:10010D002097063097FD750A0120960E7F01120487
:10011D00E82096063096FD750A0520950E7F011292
:10012D0004E82095063095FD750A097590FFC29279
:10013D0020970E7F011204E82097063097FD750A6F
:10014D000220960E7F011204E82096063096FD756A
:10015D000A0620950E7F011204E82095063095FDC4
:10016D00E4F50A7590FFC29120970E7F011204E805
:10017D002097063097FD750A0320960E7F01120415
:10018D00E82096063096FD750A0720950E7F011220
:10019D0004E82095063095FD750A0B7590FFC29009
:1001AD0020970E7F011204E82097063097FD750AFF
:1001BD000420960E7F011204E82096063096FD75F8
:1001CD000A0820950E7F011204E82095063095FD52
:0501DD00750A0CAF0AD9
:0101E20022FA
:1004A70062696E676F006572726F7200202020208C
:0704B700002020202020009E
:07050100022900000128009F
:10000300E4F508F509E528C3940440030200AC12A3
:1000130000FD7508008F09D3E509940CE5089400E9
:1000230050E3E509F4450860DCC3E509940AE508F3
:100033009400502CAE29AF2A7C007D0A1202108E48
:10004300298F2AE509252AF52AE5083529F5290501
:100053002885280EAB2AFA7D017F0212048A80A527
:10006300E509640B45087034E528D394004096AE47
:1000730029AF2A7C007D0A1202228E298F2A152895
:1000830085280EAB2AAA297D017F0212048AE5285E
:1000930004FD7B207F02120522020008E509640C9F
:1000A30045086003020008804C1200FD7508008FAC
:1000B30009E509640B45087034E528D39400402D05
:1000C300AE29AF2A7C007D0A1202228E298F2A15BF
:1000D3002885280EAB2AAA297D017F0212048AE50E
:1000E3002804FD7B207F02120522020003E5096438
:0900F3000C450870B4AE29AF2AD7
:0100FC0022E1
:10046C00EFB5050CEEB504087BFF7A0479A780067E
:0E047C007BFF7A0479AD7D0C7F021204092209
:10042C007BFF7A0479B37D017F021204097BFF7A8A
:10043C000479B87D0C7F02120409E4F528F529F53E
:02044C002A2262
:1004E800AE071FEE600A7E907D9DDDFEDEFC80F08B
:0104F80022E1
:0300000002027782
:0C027700787FE4F6D8FD75812A0202BEF3
:1001E300BB010CE58229F582E5833AF583E02250D1
:1001F30006E92582F8E622BBFE06E92582F8E2221B
:0D020300E58229F582E5833AF583E4932234
:10021000EF8DF0A4A8F0CF8CF0A428CE8DF0A42E02
:02022000FE22BC
:10022200BC000BBE0029EF8DF084FFADF022E4CCC0
:10023200F875F008EF2FFFEE33FEEC33FCEE9DEC89
:10024200984005FCEE9DFE0FD5F0E9E4CEFD22EDCF
:10025200F8F5F0EE8420D21CFEADF075F008EF2F19
:10026200FFED33FD4007985006D5F0F222C398FD0A
:050272000FD5F0EA22A7
:100283000203E1E493A3F8E493A34003F68001F2AD
:1002930008DFF48029E493A3F85407240CC8C3337C
:1002A300C4540F4420C8834004F456800146F6DF4B
:1002B300E4800B01020408102040809004F9E47EDE
:1002C300019360BCA3FF543F30E509541FFEE49340
:1002D300A360010ECF54C025E060A840B8E493A307
:1002E300FAE493A3F8E493A3C8C582C8CAC583CA32
:1002F300F0A3C8C582C8CAC583CADFE9DEE780BEEA
:0105080000F2
:00000001FF
