:0F08C9002D003A0054696D653A00202000200090
:0408F60002110000EB
:10039C0012066AE51FFB7A00750C027D097F0112BB
:1003AC0008477BFF7A0879C97D0B7F01120806E5A7
:1003BC0020FB7A00750C027D0C7F011208477BFF35
:1003CC007A0879C97D0E7F01120806E521FB7A00B7
:1003DC00750C027D0F7F01120847E522FB7A007530
:1003EC000C027D017F021208477BFF7A0879CB7DD6
:1003FC00037F02120806E523FB7A00750C027D04CC
:10040C007F021208477BFF7A0879CB7D067F0212A8
:10041C000806E524FB7A00750C027D077F021208A2
:10042C00477BFF7A0879C97D097F02120806E5250A
:0D043C00FB7A00750C017D0A7F0202084763
:10000E00E514B4020C0517E517D394064003E4F586
:10001E0017E514640360030200F6741F2517F80633
:10002E00E51FD394634003E4F51FE520D3940C4001
:10003E0003752001E52064016023E5206403601D43
:10004E00E52064056017E52064076011E52064086B
:10005E00600BE520640A6005E520B40C0AE521D3A7
:10006E00941F4003752101E52064046011E52064AE
:10007E0006600BE52064096005E520B40B0AE52156
:10008E00D3941E4003752101E52064027032E51FF2
:10009E005403700AE51F75F06484E5F0700FAF1F0E
:1000AE007E007C017D90120488ED4C7009E521D311
:1000BE00941D400C8007E521D3941C40037521014B
:1000CE00E522D394174003E4F522E523D3943B4075
:1000DE0003E4F523E524D3943B4003E4F524E5251E
:1000EE00D394074003752501E514640460030201EF
:1000FE00F5741F2517F816E51FC394005003751FDE
:10010E0063E520C39401500375200CE52064016063
:10011E0023E5206403601DE52064056017E5206477
:10012E00076011E5206408600BE520640A6005E5B0
:10013E0020B40C14E521C39401500375211FE52151
:10014E00D3941F4003752101E52064046011E5205E
:10015E006406600BE52064096005E520B40B14E528
:10016E0021C39401500375211EE521D3941E400333
:10017E00752101E52064027046E51F5403700AE5FF
:10018E001F75F06484E5F0700FAF1F7E007C017D5B
:10019E0090120488ED4C7013E521C3940150037541
:1001AE00211DE521D3941D40168011E521C3940134
:1001BE00500375211CE521D3941C4003752101E5E4
:1001CE0022C394005003752217E523C394005003F5
:1001DE0075233BE524C39400500375243BE525C3EA
:0801EE0094005003752507225F
:1001F6001208911200031208647BFF7A0879CD7DFC
:10020600017F011208061205691206B18F14E51462
:10021600B40116E5157005751501800DE515B401D7
:1002260008E4F515F517120569E515700612039C25
:1002360002039412000EE5177014E513B4010F7B48
:10024600FF7A0879D37D097F01120806800FE51F22
:10025600FB7A00750C027D097F011208477BFF7A45
:100266000879C97D0B7F01120806E517B40114E56C
:1002760013B4010F7BFF7A0879D37D0C7F01120836
:1002860006800FE520FB7A00750C027D0C7F0112BB
:1002960008477BFF7A0879C97D0E7F01120806E5BB
:1002A60017B40214E513B4010F7BFF7A0879D37DE6
:1002B6000F7F01120806800FE521FB7A00750C02FC
:1002C6007D0F7F01120847E517B40314E513B40147
:1002D6000F7BFF7A0879D37D017F02120806800F13
:1002E600E522FB7A00750C027D017F021208477B2E
:1002F600FF7A0879CB7D037F02120806E517B4045E
:1003060014E513B4010F7BFF7A0879D37D047F02CD
:10031600120806800FE523FB7A00750C027D047F28
:10032600021208477BFF7A0879CB7D067F02120806
:1003360006E517B40514E513B4010F7BFF7A0879B7
:10034600D37D077F02120806800FE524FB7A00752D
:100356000C027D077F021208477BFF7A0879C97D68
:10036600097F02120806E517B40614E513B4010F57
:100376007BFF7A0879D67D0A7F02120806800FE590
:1003860025FB7A00750C017D0A7F021208477F3231
:060396001208B802020F7C
:03000B00020729C0
:09072900C0E0C0D075D000C0078B
:10073200758A18758CFC0512E51270020511D394A6
:100742002CE51194014012751100751200E5137029
:09075200047F0180027F008F1377
:07075B00D007D0D0D0E0323E
:0608D800C2A58F80D2A72B
:0808DE007F027EEFDEFEDFFC6D
:0108E60022EF
:0A090400C2A61208D8C2A70208DE3E
:10082900CFCDCFCECCCE1204887C007D0A120488AD
:04083900ED2430FF7B
:0A083D00D2A61208D8C2A70208DEF6
:10087B00AE07BE0104ED148006BE0209ED243F4411
:06088B0080FF12090422A7
:100891007F381209047F0C1209047F061209047FB4
:0408A1000102090443
:0A090E00AC0312087BAF0402083DA1
:060806008B088A09890A33
:10080C0012087BE4FDAB08AA09A90A8D8275830046
:0C081C00120449FF600612083D0D80E93F
:0108280022AD
:0C07D3007F0AEA24FFFDE434FFFC7E00F6
:0807DF008E0D8F0E8C0F8D10A2
:1007E7007F017E00E4FBEBC39510E50F6480F8748E
:0E07F7008098500AAC0DAD0E1204760B80E80F
:0108050022D0
:040847008A0A8B0B83
:10084B0012087BAA0CEAD39400400D1207D3AC0A12
:08085B00AD0B1208291A80ED13
:010863002272
:1006EF0012087BC3EA64809480400B7F2B12083D75
:1006FF008A1D8B1E800E7F2D12083DC3E49BF51EB5
:10070F00E49AF51DAA1CEAD39400400D1207D3AC4E
:09071F001DAD1E1208291A80ED1F
:0107280022AE
:040762008A288B292D
:1007660012087BAA2AEAD3940040297F101207D5E3
:10077600AC28AD29CFCDCFCECCCE120488EF540F06
:10078600FEC3940AEE5004243080022437FF120878
:040796003D1A80D1B7
:01079A00223C
:04079B008A2D8B2EEA
:10079F0012087BAA2FEAD394004028EA24FFFDE435
:1007AF0034FFFC7F027E001207DFAC2DAD2ECFCDC4
:1007BF00CFCECCCE120488EF54012430FF12083D67
:0307CF001A80D2BB
:0107D2002204
:0908FA00071F1A0A011130140451
:05000300C2B5C2B622E7
:02061C00AD0728
:10061E00E4F9FB430501D2B574017E00A8030880FE
:10062E0005C333CE33CED8F9FFEDF582EF558224D4
:10063E00FF92B4C2B6D2B60BBB08DDE4FBD2B6C293
:10064E00B630B40D7401A803088002C333D8FC423F
:0B065E00010BBB08E8C2B5C2B4AF013D
:01066900226E
:0205CB00A9077E
:1005CD00D2B5E4FB74017E00A803088005C333CEC9
:1005DD0033CED8F9FFE9F582EF558224FF92B4D2DC
:1005ED00B6C2B60BBB08DDE4FB74017E00A80308A0
:1005FD008005C333CE33CED8F9FFEDF582EF5582AA
:0E060D0024FF92B4D2B6C2B60BBB08DDC2B554
:01061B0022BC
:10056900E4FD7F8E1205CBAF1F1208A5AD077F8C66
:100579001205CBAF201208A5AD077F881205CBAFB6
:10058900211208A5AD077F861205CBAF221208A557
:10059900AD077F841205CBAF231208A5AD077F8273
:1005A9001205CBAF241208A5AD077F801205CBAF8A
:1005B900251208A5AD077F8A1205CB7D807F8E02A3
:0205C90005CB60
:10066A007F8C12061C1208E78F1F7F8812061C1245
:10067A0008E78F207F8612061C1208E78F217F84E5
:10068A0012061C1208E78F227F8212061C1208E744
:10069A008F237F8012061C1208E78F247F8A120696
:0706AA001C1208E78F252256
:0F08E700EFC4540F75F00AA4FEEF540F2EFF223A
:1008A500EF75F00A84C454F0FEEF75F00A84E5F0A4
:0308B5004EFF22D1
:100864005389F0438901758A66758CFCC28DD28CDC
:07087400D2A9D2AFC2B922E4
:1008B800AE071FEE600A7E027D6DDDFEDEFC80F075
:0108C800220D
:1006B100E4F50820B00B7F141208B830B0FD7508BE
:1006C1000220B10B7F141208B830B1FD750801206A
:1006D100B20B7F141208B830B2FD75080320B30BBA
:0D06E1007F141208B830B3FD750804AF088F
:0106EE0022E9
:030000000204DD1A
:0C04DD00787FE4F6D8FD75812F0205241D
:10044900BB010CE58229F582E5833AF583E0225068
:1004590006E92582F8E622BBFE06E92582F8E222B2
:0D046900E58229F582E5833AF583E49322CC
:10047600EF8DF0A4A8F0CF8CF0A428CE8DF0A42E9A
:02048600FE2254
:10048800BC000BBE0029EF8DF084FFADF022E4CC58
:10049800F875F008EF2FFFEE33FEEC33FCEE9DEC21
:1004A800984005FCEE9DFE0FD5F0E9E4CEFD22ED67
:1004B800F8F5F0EE8420D21CFEADF075F008EF2FB1
:1004C800FFED33FD4007985006D5F0F222C398FDA2
:0504D8000FD5F0EA223F
:1004E9000201F6E493A3F8E493A34003F68001F232
:1004F90008DFF48029E493A3F85407240CC8C33314
:10050900C4540F4420C8834004F456800146F6DFE2
:10051900E4800B01020408102040809008F6E47E74
:10052900019360BCA3FF543F30E509541FFEE493D7
:10053900A360010ECF54C025E060A840B8E493A39E
:10054900FAE493A3F8E493A3C8C582C8CAC583CAC9
:10055900F0A3C8C582C8CAC583CADFE9DEE780BE81
:0109030000F3
:00000001FF
