:0300E7000108000D
:1000BD001200A6AF081200DF05087FE81200CE80FF
:0100CD00F240
:10008F005389F0438901758A66758CFCC28DD28CB9
:07009F00D2A9D2AFC2B922C1
:1000CE00AE071FEE600A7E027D6DDDFEDEFC80F067
:0100DE0022FF
:1000A60043878075985053890F438920758BF47563
:0700B6008DF4C2ABD28E22D3
:0800DF008F993099FDC29922AE
:03000000020003F8
:0C000300787FE4F6D8FD75810802004A01
:10000F000200BDE493A3F8E493A34003F68001F24A
:10001F0008DFF48029E493A3F85407240CC8C333F2
:10002F00C4540F4420C8834004F456800146F6DFC1
:10003F00E4800B01020408102040809000E7E47E6A
:10004F00019360BCA3FF543F30E509541FFEE493B6
:10005F00A360010ECF54C025E060A840B8E493A37D
:10006F00FAE493A3F8E493A3C8C582C8CAC583CAA8
:10007F00F0A3C8C582C8CAC583CADFE9DEE780BE60
:0100EA000015
:00000001FF
