:0301B900010A0038
:1001980012016C75A0FE12013A8F0AE50A60F71287
:0401A80001AC80F234
:03000B0002009A56
:10009A00C0E0C0F0C083C082C0D075D000C000C02C
:0D00AA0001C002C003C004C005C006C007AD
:1000B700758A66758CFC0509E50970020508D394F5
:1000C700E8E508940340097508007509001200F275
:1000D700D007D006D005D004D003D002D001D0007D
:0B00E700D0D0D082D083D0F0D0E03227
:100183007E057D347CC3AB071FEB6008DCFEDDFC22
:04019300DEFA80F21E
:010197002245
:10016C005389F0438901758A66758CFCC28DD28CDB
:07017C00D2A9D2AFC2B922E3
:0601BC00010B00010C0024
:0D01AC00BF0103750C01BF0203750C022298
:1000F200E50C6043E50CB4011EE50BC39407400513
:10010200E4F50B8002050BAF0B7401A8070880020F
:10011200C333D8FCF4F5A0E50CB4021BE50B700563
:10012200750B078002150BAF0B7401A8070880023C
:08013200C333D8FCF4F5A02250
:10013A00E4F50D20B0137F0112018320B00B30B01B
:10014A00FD7F01120183750D0120B1137F01120198
:10015A008320B10B30B1FD7F01120183750D02AF0F
:01016A000D87
:01016B002271
:0300000002000EED
:0C000E00787FE4F6D8FD75810D020055E6
:10001A00020198E493A3F8E493A34003F68001F263
:10002A0008DFF48029E493A3F85407240CC8C333E7
:10003A00C4540F4420C8834004F456800146F6DFB6
:10004A00E4800B01020408102040809001B9E47E8C
:10005A00019360BCA3FF543F30E509541FFEE493AB
:10006A00A360010ECF54C025E060A840B8E493A372
:10007A00FAE493A3F8E493A3C8C582C8CAC583CA9D
:10008A00F0A3C8C582C8CAC583CADFE9DEE780BE55
:0101C200003C
:00000001FF
