:10011000AE071FEE600A7E027D6DDDFEDEFC80F024
:0101200022BC
:03012900010800CA
:05001E0012000380FE4A
:030023000200B226
:1000B200C0E0C0F0C083C082C0D075D000C000C014
:1000C20001C002C003C004C005C006C00730980CBE
:1000D200E599F4F5A0AF99120121C298D007D00694
:1000E200D005D004D003D002D001D000D0D0D0822D
:0700F200D083D0F0D0E03212
:1000F9005389F0438901758A66758CFCC28DD28C4F
:07010900D2A9D2AFC2B92256
:1000030043878075985053890F438920758BF47506
:0B0013008DF4C2ABD28ED2AFD2AC2273
:080121008F993099FDC299226B
:03000000020026D5
:0C002600787FE4F6D8FD75810802006DBB
:1000320002001EE493A3F8E493A34003F68001F2C6
:1000420008DFF48029E493A3F85407240CC8C333CF
:10005200C4540F4420C8834004F456800146F6DF9E
:10006200E4800B0102040810204080900129E47E04
:10007200019360BCA3FF543F30E509541FFEE49393
:10008200A360010ECF54C025E060A840B8E493A35A
:10009200FAE493A3F8E493A3C8C582C8CAC583CA85
:1000A200F0A3C8C582C8CAC583CADFE9DEE780BE3D
:01012C0000D2
:00000001FF
