:09038F0070617373776F726400F2
:10029F0012033B7BFF7A03798F7D017F011202C727
:1002AF001200038F08E50860F7FB7A00750D027DD9
:0802BF00017F0212030880E830
:06036000C2A58F80D2A7A8
:080366007F027EEFDEFEDFFCEA
:01036E00226C
:0A037B00C2A6120360C2A7020366C7
:1002EA00CFCDCFCECCCE12016C7C007D0A12016C30
:0402FA00ED2430FFC0
:0A02FE00D2A6120360C2A702036635
:10032500AE07BE0104ED148006BE0209ED243F446C
:0603350080FF12037B2291
:10033B007F3812037B7F0C12037B7F0612037B7FBC
:04034B000102037B2D
:0A038500AC03120325AF040202FED0
:0602C7008B098A0A890B75
:1002CD00120325E4FDAB09AA0AA90B8D82758300E3
:0C02DD0012012DFF60061202FE0D80E9E8
:0102E90022F2
:0C026C007F0AEA24FFFDE434FFFC7E0062
:080278008E0E8F0F8C108D110A
:100280007F017E00E4FBEBC39511E5106480F874F8
:0E0290008098500AAC0EAD0F12015A0B80E898
:01029E00223D
:040308008A0B8B0CC5
:10030C00120325AA0DEAD39400400D12026CAC0B1B
:08031C00AD0C1202EA1A80ED9B
:0103240022B6
:1001C100120325C3EA64809480400B7F2B1202FE48
:1001D1008A178B18800E7F2D1202FEC3E49BF5183F
:1001E100E49AF517AA16EAD39400400D12026CACFA
:0901F10017AD181202EA1A80EDA4
:0101FA0022E2
:0401FB008A1B8B1CB4
:1001FF00120325AA1DEAD3940040297F1012026E24
:10020F00AC1BAD1CCFCDCFCECCCE12016CEF540FAB
:10021F00FEC3940AEE5004243080022437FF1202EA
:04022F00FE1A80D162
:0102330022A8
:040234008A208B2170
:10023800120325AA22EAD394004028EA24FFFDE409
:1002480034FFFC7F027E00120278AC20AD21CFCDB6
:10025800CFCECCCE12016CEF54012430FF1202FE37
:030268001A80D227
:01026B002270
:10034F00AE071FEE600A7E907D9DDDFEDEFC80F025
:01035F00227B
:10000300E4F5097590FFC29320970E7F0112034F09
:100013002097063097FD75090120960E7F01120384
:100023004F2096063096FD75090520950E7F011227
:10003300034F2095063095FD75090920940E7F0125
:1000430012034F2094063094FD75090D7590FFC27D
:100053009220970E7F0112034F2097063097FD756C
:10006300090220960E7F0112034F2096063096FD5B
:1000730075090620950E7F0112034F2095063095D2
:10008300FD75090A20940E7F0112034F2094063058
:1000930094FD75090E7590FFC29120970E7F011292
:1000A300034F2097063097FD75090320960E7F01B5
:1000B30012034F2096063096FD75090720950E7F93
:1000C3000112034F2095063095FD75090B20940E00
:1000D3007F0112034F2094063094FD75090F75902C
:1000E300FFC29020970E7F0112034F20970630978F
:1000F300FD75090420960E7F0112034F20960630EA
:1001030096FD75090820950E7F0112034F20950671
:100113003095FD75090C20940E7F0112034F209436
:09012300063094FD750910AF09C6
:01012C0022B0
:0300000002036F89
:0C036F00787FE4F6D8FD75812202029F21
:10012D00BB010CE58229F582E5833AF583E0225087
:10013D0006E92582F8E622BBFE06E92582F8E222D1
:0D014D00E58229F582E5833AF583E49322EB
:10015A00EF8DF0A4A8F0CF8CF0A428CE8DF0A42EB9
:02016A00FE2273
:10016C00BC000BBE0029EF8DF084FFADF022E4CC77
:10017C00F875F008EF2FFFEE33FEEC33FCEE9DEC40
:10018C00984005FCEE9DFE0FD5F0E9E4CEFD22ED86
:10019C00F8F5F0EE8420D21CFEADF075F008EF2FD0
:1001AC00FFED33FD4007985006D5F0F222C398FDC1
:0501BC000FD5F0EA225E
:00000001FF
