:08000300636C6F636B003A00AF
:10036A00011B00011D00011C00011A0002180000F7
:10012E001203567BFF7A0079037D017F011202B61E
:10013E00120314E51A6021E4F51A051BE51BB43C05
:10014E0005E4F51B051DE51DB43C05E4F51D051C78
:10015E00E51CB41803E4F51CE51CFB7A00750C02D3
:10016E007D017F021202F77BFF7A0079097D037F02
:10017E00021202B6E51DFB7A00750C027D047F02A9
:10018E001202F77BFF7A0079097D067F021202B612
:10019E00E51BFB7A00750C027D077F021202F780C9
:0101AE0092BE
:03000B0002028D61
:04028D00C0E0C0D03D
:10029100758A66758CFC0519E51970020518D394E9
:1002A100E8E51894034009751800751900751A01DD
:0502B100D0D0D0E032C6
:100341007E057D347CC3AB071FEB6008DCFEDDFC62
:04035100DEFA80F25E
:010355002285
:100314005389F0438901758A66758CFCC28DD28C31
:07032400D2A9D2AFC2B92239
:06037B00C2A58F80D2A78D
:080381007F027EEFDEFEDFFCCF
:010389002251
:0A038A00C2A612037BC2A702038182
:1002D900CFCDCFCECCCE12004D7C007D0A12004D81
:0402E900ED2430FFD1
:0A02ED00D2A612037BC2A702038110
:10032B00AE07BE0104ED148006BE0209ED243F4466
:06033B0080FF12038A227C
:100356007F3812038A7F0C12038A7F0612038A7F74
:040366000102038A03
:0A039400AC0312032BAF040202EDCC
:0602B6008B088A09890A89
:1002BC0012032BE4FDAB08AA09A90A8D82758300F1
:0C02CC0012000EFF60061202ED0D80E92A
:0102D8002203
:0C025A007F0AEA24FFFDE434FFFC7E0074
:080266008E0D8F0E8C0F8D1020
:10026E007F017E00E4FBEBC39510E50F6480F8740C
:0E027E008098500AAC0DAD0E12003B0B80E8CC
:01028C00224F
:0402F7008A0A8B0BD9
:1002FB0012032BAA0CEAD39400400D12025AAC0A3B
:08030B00AD0B1202D91A80EDBE
:0103130022C7
:1001AF0012032BC3EA64809480400B7F2B1202ED65
:1001BF008A168B17800E7F2D1202EDC3E49BF51765
:1001CF00E49AF516AA15EAD39400400D12025AAC20
:0901DF0016AD171202D91A80EDC9
:0101E80022F4
:0401E9008A208B21BC
:1001ED0012032BAA22EAD3940040297F1012025C3D
:1001FD00AC20AD21CFCDCFCECCCE12004DEF540FD4
:10020D00FEC3940AEE5004243080022437FF1202FC
:04021D00ED1A80D185
:0102210022BA
:040222008A258B2678
:1002260012032BAA27EAD394004028EA24FFFDE410
:1002360034FFFC7F027E00120266AC25AD26CFCDD0
:10024600CFCECCCE12004DEF54012430FF1202ED7A
:030256001A80D239
:010259002282
:030000000200A259
:0C00A200787FE4F6D8FD7581270200E9A4
:10000E00BB010CE58229F582E5833AF583E02250A7
:10001E0006E92582F8E622BBFE06E92582F8E222F1
:0D002E00E58229F582E5833AF583E493220B
:10003B00EF8DF0A4A8F0CF8CF0A428CE8DF0A42ED9
:02004B00FE2293
:10004D00BC000BBE0029EF8DF084FFADF022E4CC97
:10005D00F875F008EF2FFFEE33FEEC33FCEE9DEC60
:10006D00984005FCEE9DFE0FD5F0E9E4CEFD22EDA6
:10007D00F8F5F0EE8420D21CFEADF075F008EF2FF0
:10008D00FFED33FD4007985006D5F0F222C398FDE1
:05009D000FD5F0EA227E
:1000AE0002012EE493A3F8E493A34003F68001F239
:1000BE0008DFF48029E493A3F85407240CC8C33353
:1000CE00C4540F4420C8834004F456800146F6DF22
:1000DE00E4800B010204081020408090036AE47E45
:1000EE00019360BCA3FF543F30E509541FFEE49317
:1000FE00A360010ECF54C025E060A840B8E493A3DE
:10010E00FAE493A3F8E493A3C8C582C8CAC583CA08
:10011E00F0A3C8C582C8CAC583CADFE9DEE780BEC0
:01037A000082
:00000001FF
